:020000040000FA
:100000000128831681308700243098001930990028
:10001000880106309F00890186010C30850083121B
:1000200007309C0089018801903098008601850185
:10003000A501CA01D601D701D801D901DA01DB0136
:100040008C1A1A088C1A1A088C1289235020013035
:100050005D23A02384305D234D307323413073230F
:100060004330732348307323493073234E30732356
:1000700045307323C5305D235230732345307323DD
:100080004130732344307323593073238D20251856
:10009000442B01305D23A023BC2082213F2346282E
:1000A00001305D2380305D23483073234F3073234C
:1000B0004D307323493073234E30732347307323FD
:1000C0002E3073232E3073232E307323C0305D23E4
:1000D000593073232E3073232E3073238611851DE0
:1000E000762806153423061134236F28D901DA0146
:1000F000DB01C0305D23583073232E3073232E3044
:1001000073238614051D892806143423061034230E
:100110008228D601D701D801080030308400A5011B
:100120008C1E90281A08A4008C129818B9200D3043
:100130002402031990280A3024020319A328240852
:100140008000840A9028433084000008CA003030C0
:1001500084000008453C031D0800840A00084E3C4A
:10016000031D0800840A0008443C031D08002514F0
:100170000800181218160800313084000008BE006C
:10018000323084000008BF00333084000008C00013
:10019000343084000008C100353084000008C200FB
:1001A000363084000008C300373084000008C400E3
:1001B000383084000008C500393084000008C600CB
:1001C000403084000008C700413084000008C800A7
:1001D000423084000008C900C42180305D235830BB
:1001E00073233A307323012120307323C0305D2301
:1001F000EE21593073233A307323012120307323C9
:100200000800A1017008EF007108EB007208EC0013
:100210004030F2029C30031C013EF1020030031C0E
:10022000013EF002031C1629A10A02296F08F00002
:100230006B08F1006C08F200A2017008EF00710871
:10024000EB007208EC00A030F2020F30031C013EFC
:10025000F1020030031C013EF002031C3129A20A06
:100260001D296F08F0006B08F1006C08F200A30173
:100270007008EF007108EB007208EC009030F20299
:100280000130031C013EF1020030031C013EF0026C
:10029000031C4C29A30A38296F08F0006B08F100F1
:1002A0006C08F200EB017008EF007108ED007208B5
:1002B000EE002830F2020030031C013EF102003053
:1002C000031C013EF002031C6729EB0A53296F0847
:1002D000F0006D08F1006E08F2002108EF0022081E
:1002E000ED002308EE006F08303E73236D08303EAA
:1002F00073236E08303E73232E3073236B08303E19
:1003000073230800C421EE210C1E84294A08990099
:100310000A30A30031304A020319AD2132304A02BB
:1003200003199621A30B8A293522080006160130ED
:10033000FA00D830F90000000000F90B9B29FA0BF5
:10034000992906121330FA00C830F90000000000A5
:10035000F90BA629FA0BA429080006160130FA00A9
:10036000C830F90000000000F90BB229FA0BB029DF
:1003700006121330FA00C830F90000000000F90B33
:10038000BD29FA0BBB290800F001F1013E080F3925
:10039000F20018223F080F39F2070318F10A182259
:1003A00040080F39F2070318F10A182241080F39E3
:1003B000F2070318F10A182242080F39F20703184E
:1003C000F10A182243080F39F2070318F10A7008DE
:1003D000D0007108D1007208D2000800F001F101CC
:1003E00044080F39F200182245080F39F2070318A4
:1003F000F10A182246080F39F2070318F10A1822E9
:1004000047080F39F2070318F10A182248080F3974
:10041000F2070318F10A182249080F39F2070318E6
:10042000F10A7008D3007108D4007208D5000800E2
:100430000310F20DF10DF00D7008EF007108EB00E4
:100440007208EC000310F20DF10DF00D0310F20D27
:10045000F10DF00D6C08F2070318F10A6B08F107B3
:100460000318F00A6F08F007080052085802031D2D
:100470004E2A51085702031D4E2A50085602031DEA
:100480004E2A55085B02031D4E2A54085A02031DCA
:100490004E2A53085902031D4E2A080058085202DA
:1004A000DE005708031C013E5102DD005608031C04
:1004B000013E5002DC0003186B2ADE09DD09DC096D
:1004C0000130DE07031C682ADD0A031D682ADC0AE6
:1004D0000130E8006C2AE8015B085502E1005A0887
:1004E000031C013E5402E0005908031C013E530264
:1004F000DF000318892AE109E009DF090130E1077B
:10050000031C862AE00A031D862ADF0A0130E9005F
:100510008A2AE901681C861068188614691C8615E9
:10052000691886115C085F02031D9C2A5D08600241
:10053000031D9C2A5E086102031CAE2A0130EA00FA
:100540005F08E5006008E6006108E70003105F0C43
:10055000E200600CE300610CE400BC2AEA015C08E4
:10056000E5005D08E6005E08E70003105C0CE200B1
:100570005D0CE3005E0CE400650866046704031983
:100580001C2B6A18EB2A06146108E4070318E30A17
:100590006008E3070318E20A5F08E2075E086402E6
:1005A0005D08031C013E63025C08031C013E6202FD
:1005B000031CE52A06155E08E4025D08031C013EE3
:1005C000E3025C08031C013EE2020000000006108A
:1005D00006112923122B06155E08E4070318E30A07
:1005E0005D08E3070318E20A5C08E2076108640299
:1005F0006008031C013E63025F08031C013E6202A7
:10060000031C0D2B06146108E4026008031C013E64
:10061000E3025F08031C013EE20200000000061135
:10062000061029230130E7020318BC2A0130E60234
:100630000318BC2AE503BC2A5208D8005108D70089
:100640005008D6005508DB005408DA005308D900DA
:1006500008000130FA001030F90000000000F90B2A
:100660002D2BFA0B2B2B08000230FA001030F9006A
:1006700000000000F90B382BFA0B362B08000C1E7B
:100680003F2B41309900080001305D2386305D2307
:10069000503073234C3073234F3073235430732303
:1006A000C5305D23443073234F3073234E307323A2
:1006B00045307323213073235C2B091189100910F5
:1006C0008800000000000000000009140000000085
:1006D000000000000000000000000000000000001A
:1006E0000910AD23080009158910091088000000C1
:1006F00000000000000009140000000000000000DD
:100700000000000000000000000000000910AD2300
:10071000080089018801A023A023A02338305D238D
:1007200038305D2338305D2338305D2308305D2359
:1007300001305D23A02306305D230C305D230800CB
:100740000130A3001930A200FF30A100A10BA62B9D
:10075000A20BA42BA30BA22B08000130A3000D3089
:10076000A200FF30A100A10BB32BA20BB12BA30B56
:04077000AF2B0800A3
:02400E00323F3F
:00000001FF
